{"abi":[{"type":"constructor","inputs":[{"name":"_switchboard","type":"address","internalType":"address"},{"name":"_aggregatorId","type":"bytes32","internalType":"bytes32"}],"stateMutability":"nonpayable"},{"type":"function","name":"aggregatorId","inputs":[],"outputs":[{"name":"","type":"bytes32","internalType":"bytes32"}],"stateMutability":"view"},{"type":"function","name":"getFeedData","inputs":[{"name":"updates","type":"bytes[]","internalType":"bytes[]"}],"outputs":[],"stateMutability":"payable"},{"type":"function","name":"getLatestUpdate","inputs":[],"outputs":[{"name":"result","type":"int128","internalType":"int128"},{"name":"timestamp","type":"uint256","internalType":"uint256"},{"name":"oracleId","type":"bytes32","internalType":"bytes32"}],"stateMutability":"view"},{"type":"function","name":"lastOracleId","inputs":[],"outputs":[{"name":"","type":"bytes32","internalType":"bytes32"}],"stateMutability":"view"},{"type":"function","name":"lastUpdateTimestamp","inputs":[],"outputs":[{"name":"","type":"uint256","internalType":"uint256"}],"stateMutability":"view"},{"type":"function","name":"latestPrice","inputs":[],"outputs":[{"name":"","type":"int256","internalType":"int256"}],"stateMutability":"view"},{"type":"event","name":"FeedData","inputs":[{"name":"price","type":"int128","indexed":false,"internalType":"int128"},{"name":"timestamp","type":"uint256","indexed":false,"internalType":"uint256"},{"name":"oracleId","type":"bytes32","indexed":false,"internalType":"bytes32"}],"anonymous":false},{"type":"error","name":"InsufficientFee","inputs":[{"name":"expected","type":"uint256","internalType":"uint256"},{"name":"received","type":"uint256","internalType":"uint256"}]},{"type":"error","name":"InvalidResult","inputs":[{"name":"result","type":"int128","internalType":"int128"}]}],"bytecode":{"object":"0x608060405234801561000f575f5ffd5b50604051610a91380380610a918339818101604052810190610031919061010f565b815f5f6101000a81548173ffffffffffffffffffffffffffffffffffffffff021916908373ffffffffffffffffffffffffffffffffffffffff16021790555080600181905550505061014d565b5f5ffd5b5f73ffffffffffffffffffffffffffffffffffffffff82169050919050565b5f6100ab82610082565b9050919050565b6100bb816100a1565b81146100c5575f5ffd5b50565b5f815190506100d6816100b2565b92915050565b5f819050919050565b6100ee816100dc565b81146100f8575f5ffd5b50565b5f81519050610109816100e5565b92915050565b5f5f604083850312156101255761012461007e565b5b5f610132858286016100c8565b9250506020610143858286016100fb565b9150509250929050565b6109378061015a5f395ff3fe608060405260043610610054575f3560e01c806314bcec9f146100585780632274df2d146100825780634115ea08146100ac5780635c40450c146100c8578063a3e6ba94146100f2578063adb4af3e1461011c575b5f5ffd5b348015610063575f5ffd5b5061006c610148565b6040516100799190610409565b60405180910390f35b34801561008d575f5ffd5b5061009661014e565b6040516100a3919061043a565b60405180910390f35b6100c660048036038101906100c191906104c5565b610154565b005b3480156100d3575f5ffd5b506100dc6103ce565b6040516100e9919061043a565b60405180910390f35b3480156100fd575f5ffd5b506101066103d4565b6040516101139190610528565b60405180910390f35b348015610127575f5ffd5b506101306103da565b60405161013f9392919061055c565b60405180910390f35b60035481565b60045481565b5f5f5f9054906101000a900473ffffffffffffffffffffffffffffffffffffffff1673ffffffffffffffffffffffffffffffffffffffff16638a7d3fa684846040518363ffffffff1660e01b81526004016101b0929190610707565b602060405180830381865afa1580156101cb573d5f5f3e3d5ffd5b505050506040513d601f19601f820116820180604052508101906101ef9190610753565b9050803410156102385780346040517fa458261b00000000000000000000000000000000000000000000000000000000815260040161022f92919061077e565b60405180910390fd5b5f5f9054906101000a900473ffffffffffffffffffffffffffffffffffffffff1673ffffffffffffffffffffffffffffffffffffffff1663bc36c0a98285856040518463ffffffff1660e01b8152600401610294929190610707565b5f604051808303818588803b1580156102ab575f5ffd5b505af11580156102bd573d5f5f3e3d5ffd5b50505050505f5f5f9054906101000a900473ffffffffffffffffffffffffffffffffffffffff1673ffffffffffffffffffffffffffffffffffffffff1663f0f0fce96001546040518263ffffffff1660e01b815260040161031e919061043a565b606060405180830381865afa158015610339573d5f5f3e3d5ffd5b505050506040513d601f19601f8201168201806040525081019061035d91906108d6565b90508060200151600f0b6002819055508060400151600381905550805f01516004819055507f03793fb99079852e66aa0c2cad233147376b11c4a5f710010e0ae909535fe78481602001518260400151835f01516040516103c09392919061055c565b60405180910390a150505050565b60015481565b60025481565b5f5f5f600254600354600454925092509250909192565b5f819050919050565b610403816103f1565b82525050565b5f60208201905061041c5f8301846103fa565b92915050565b5f819050919050565b61043481610422565b82525050565b5f60208201905061044d5f83018461042b565b92915050565b5f604051905090565b5f5ffd5b5f5ffd5b5f5ffd5b5f5ffd5b5f5ffd5b5f5f83601f84011261048557610484610464565b5b8235905067ffffffffffffffff8111156104a2576104a1610468565b5b6020830191508360208202830111156104be576104bd61046c565b5b9250929050565b5f5f602083850312156104db576104da61045c565b5b5f83013567ffffffffffffffff8111156104f8576104f7610460565b5b61050485828601610470565b92509250509250929050565b5f819050919050565b61052281610510565b82525050565b5f60208201905061053b5f830184610519565b92915050565b5f81600f0b9050919050565b61055681610541565b82525050565b5f60608201905061056f5f83018661054d565b61057c60208301856103fa565b610589604083018461042b565b949350505050565b5f82825260208201905092915050565b5f819050919050565b5f82825260208201905092915050565b828183375f83830152505050565b5f601f19601f8301169050919050565b5f6105e383856105aa565b93506105f08385846105ba565b6105f9836105c8565b840190509392505050565b5f6106108484846105d8565b90509392505050565b5f5ffd5b5f5ffd5b5f5ffd5b5f5f8335600160200384360303811261064157610640610621565b5b83810192508235915060208301925067ffffffffffffffff82111561066957610668610619565b5b60018202360383131561067f5761067e61061d565b5b509250929050565b5f602082019050919050565b5f61069e8385610591565b9350836020840285016106b0846105a1565b805f5b878110156106f55784840389526106ca8284610625565b6106d5868284610604565b95506106e084610687565b935060208b019a5050506001810190506106b3565b50829750879450505050509392505050565b5f6020820190508181035f830152610720818486610693565b90509392505050565b610732816103f1565b811461073c575f5ffd5b50565b5f8151905061074d81610729565b92915050565b5f602082840312156107685761076761045c565b5b5f6107758482850161073f565b91505092915050565b5f6040820190506107915f8301856103fa565b61079e60208301846103fa565b9392505050565b5f5ffd5b7f4e487b71000000000000000000000000000000000000000000000000000000005f52604160045260245ffd5b6107df826105c8565b810181811067ffffffffffffffff821117156107fe576107fd6107a9565b5b80604052505050565b5f610810610453565b905061081c82826107d6565b919050565b61082a81610422565b8114610834575f5ffd5b50565b5f8151905061084581610821565b92915050565b61085481610541565b811461085e575f5ffd5b50565b5f8151905061086f8161084b565b92915050565b5f6060828403121561088a576108896107a5565b5b6108946060610807565b90505f6108a384828501610837565b5f8301525060206108b684828501610861565b60208301525060406108ca8482850161073f565b60408301525092915050565b5f606082840312156108eb576108ea61045c565b5b5f6108f884828501610875565b9150509291505056fea26469706673582212209dff288e8f4be7c53dce04018f7dba47bcbbcbb15e2e1341b0acd050272bf3fa64736f6c634300081d0033","linkReferences":{}},"methodIdentifiers":{"aggregatorId()":"5c40450c","getFeedData(bytes[])":"4115ea08","getLatestUpdate()":"adb4af3e","lastOracleId()":"2274df2d","lastUpdateTimestamp()":"14bcec9f","latestPrice()":"a3e6ba94"},"id":23}